S00C00004C6162312E73726563D8
S11300000C942A000C9447000C9447000C9447006D
S11300100C9447000C9447000C9447000C94470040
S11300200C9447000C9447000C9447000C94470030
S11300300C9447000C9447000C9447000C94470020
S11300400C9447000C9447000C9447000C94470010
S11300500C94470011241FBECFE5D8E0DEBFCDBF0E
S113006010E0A0E6B0E0EEE8F6E002C005900D92E4
S1130070AA38B107D9F720E0AAE8B0E001C01D9280
S1130080A039B207E1F70E9449000C9445030C948F
S113009000000E946F00CCE7D0E02FE986E891E0F1
S11300A0215080409040E1F700C00000DF93CF93DF
S11300B00E9482000F900F90F0CFCF93C82F8A3008
S11300C019F48DE00E945D005D9BFECFCCB980E009
S11300D090E0CF9108955F9BFECF8CB108958EE69A
S11300E090E090938D0080938C0080E690E0909354
S11300F08B0080938A0082E08BB98CE089B988E117
S11301008AB90895A0E0B0E0E8E8F0E00C941E039A
S1130110FE01359661917191AF0180918C009091AF
S11301208D000E949600E2E00C943A03ACE0B0E04B
S1130130ECE9F0E00C940E037C016B018A01FC01F4
S113014017821682838181FFBDC1CE0101964C01C5
S1130150F7019381F60193FD859193FF81916F01DE
S1130160882309F4ABC1853239F493FD859193FF5B
S113017081916F01853229F4B70190E00E947E02DB
S1130180E7CF512C312C20E02032A0F48B3269F0DF
S113019030F4803259F0833269F420612CC08D32FE
S11301A039F0803339F4216026C02260246023C0F2
S11301B0286021C027FD27C030ED380F3A3078F48D
S11301C026FF06C0FAE05F9E300D1124532E13C0A3
S11301D08AE0389E300D1124332E20620CC08E32FA
S11301E021F426FD6BC1206406C08C3611F420680E
S11301F002C0883641F4F60193FD859193FF819105
S11302006F018111C1CF982F9F7D9554933028F4AD
S11302100C5F1F4FFFE3F9830DC0833631F0833742
S113022071F0833509F05BC022C0F80180818983B5
S11302300E5F1F4F44244394512C540115C03801C0
S1130240F2E06F0E711CF801A080B18026FF03C09C
S1130250652D70E002C06FEF7FEFC5012C870E940F
S113026073022C0183012C852F77222E17C03801AD
S1130270F2E06F0E711CF801A080B18026FF03C06C
S1130280652D70E002C06FEF7FEFC5012C870E94DF
S113029068022C012C852068222E830123FC1BC0BC
S11302A0832D90E048165906B0F4B70180E290E03F
S11302B00E947E023A94F4CFF50127FC859127FE33
S11302C081915F01B70190E00E947E0231103A945F
S11302D0F1E04F1A51084114510471F7E5C0843616
S11302E011F0893639F5F80127FF07C06081718163
S11302F0828193810C5F1F4F08C0608171818827C0
S113030077FD8095982F0E5F1F4F2F76B22E97FFA3
S113031009C090958095709561957F4F8F4F9F4F41
S11303202068B22E2AE030E0A4010E94B002A82E78
S1130330A81844C0853729F42F7EB22E2AE030E075
S113034025C0F22FF97FBF2E8F36C1F018F48835FF
S113035079F0B4C0803719F0883721F0AFC02F2F5F
S11303602061B22EB4FE0DC08B2D8460B82E09C05E
S113037024FF0AC09F2F9660B92E06C028E030E003
S113038005C020E130E002C020E132E0F801B7FE10
S113039007C060817181828193810C5F1F4F06C009
S11303A06081718180E090E00E5F1F4FA4010E9484
S11303B0B002A82EA818FB2DFF77BF2EB6FE0BC0E7
S11303C02B2D2E7FA51450F4B4FE0AC0B2FC08C035
S11303D02B2D2E7E05C07A2C2B2D03C07A2C01C028
S11303E0752C24FF0DC0FE01EA0DF11D80818033C0
S11303F011F4297E09C022FF06C07394739404C0CB
S1130400822F867809F0739423FD13C020FF06C061
S11304105A2C731418F4530C5718732C731468F46F
S1130420B70180E290E02C870E947E0273942C85B1
S1130430F5CF731410F4371801C0312C24FF12C007
S1130440B70180E390E02C870E947E022C8522FF76
S113045017C021FF03C088E590E002C088E790E060
S1130460B7010CC0822F867859F021FD02C080E2CA
S113047001C08BE227FD8DE2B70190E00E947E026D
S1130480A51438F4B70180E390E00E947E025A94E8
S1130490F7CFAA94F401EA0DF11D8081B70190E031
S11304A00E947E02A110F5CF332009F451CEB7018A
S11304B080E290E00E947E023A94F6CFF7018681B2
S11304C0978102C08FEF9FEF2C96E2E10C942A03F0
S11304D0FC010590615070400110D8F7809590950B
S11304E08E0F9F1F0895FC01615070400190011010
S11304F0D8F7809590958E0F9F1F08950F931F93A3
S1130500CF93DF93182F092FEB018B8181FD03C05B
S11305108FEF9FEF20C082FF10C04E815F812C813E
S11305203D81421753077CF4E881F9819F012F5FD5
S11305303F4F39832883108306C0E885F985812FCE
S11305400995892B29F72E813F812F5F3F4F3F83E8
S11305502E83812F902FDF91CF911F910F910895BA
S1130560FA01AA27283051F1203181F1E8946F93E0
S11305706E7F6E5F7F4F8F4F9F4FAF4FB1E03ED086
S1130580B4E03CD0670F781F891F9A1FA11D680F24
S1130590791F8A1F911DA11D6A0F711D811D911D57
S11305A0A11D20D009F468943F912AE0269F1124CC
S11305B03019305D3193DEF6CF010895462F477030
S11305C0405D4193B3E00FD0C9F7F6CF462F4F708B
S11305D0405D4A3318F0495D31FD4052419302D0E9
S11305E0A9F7EACFB4E0A69597958795779567958F
S11305F0BA95C9F700976105710508959B01AC018F
S11306000A2E06945795479537952795BA95C9F7B5
S1130610620F731F841F951FA01D08952F923F9290
S11306204F925F926F927F928F929F92AF92BF92FE
S1130630CF92DF92EF92FF920F931F93CF93DF93AA
S1130640CDB7DEB7CA1BDB0B0FB6F894DEBF0FBE07
S1130650CDBF09942A88398848885F846E847D8454
S11306608C849B84AA84B984C884DF80EE80FD8056
S11306700C811B81AA81B981CE0FD11D0FB6F894CC
S1110680DEBF0FBECDBFED010895F894FFCF8D
S113068E000000010000000000006B0000000000EC
S113069E0002000000005D000000000048656C6C64
S10D06AE6F20576F726C64210D0079
S9030000FC
